{
  "_format": "hh-sol-artifact-1",
  "contractName": "Vesting",
  "sourceName": "contracts/Vesting.sol",
  "abi": [
    {
      "anonymous": false,
      "inputs": [
        {
          "indexed": false,
          "internalType": "uint256",
          "name": "startTime",
          "type": "uint256"
        },
        {
          "indexed": false,
          "internalType": "uint256",
          "name": "vestingPeriod",
          "type": "uint256"
        }
      ],
      "name": "CreateStakeholder",
      "type": "event"
    },
    {
      "inputs": [
        {
          "internalType": "string",
          "name": "_name",
          "type": "string"
        },
        {
          "internalType": "address",
          "name": "_orgAddress",
          "type": "address"
        },
        {
          "internalType": "uint256",
          "name": "_token",
          "type": "uint256"
        }
      ],
      "name": "addOrganisation",
      "outputs": [],
      "stateMutability": "nonpayable",
      "type": "function"
    },
    {
      "inputs": [
        {
          "internalType": "address",
          "name": "_stakeholderAddress",
          "type": "address"
        },
        {
          "internalType": "string",
          "name": "_post",
          "type": "string"
        },
        {
          "internalType": "uint256",
          "name": "_vestingPeriod",
          "type": "uint256"
        },
        {
          "internalType": "uint256",
          "name": "_token",
          "type": "uint256"
        }
      ],
      "name": "addStakeholder",
      "outputs": [],
      "stateMutability": "nonpayable",
      "type": "function"
    },
    {
      "inputs": [
        {
          "internalType": "address",
          "name": "",
          "type": "address"
        }
      ],
      "name": "balance",
      "outputs": [
        {
          "internalType": "uint256",
          "name": "",
          "type": "uint256"
        }
      ],
      "stateMutability": "view",
      "type": "function"
    },
    {
      "inputs": [],
      "name": "claimToken",
      "outputs": [],
      "stateMutability": "nonpayable",
      "type": "function"
    },
    {
      "inputs": [],
      "name": "getClaimedToken",
      "outputs": [
        {
          "internalType": "uint256",
          "name": "",
          "type": "uint256"
        }
      ],
      "stateMutability": "view",
      "type": "function"
    },
    {
      "inputs": [
        {
          "internalType": "address",
          "name": "_address",
          "type": "address"
        }
      ],
      "name": "getStakeholderPostion",
      "outputs": [
        {
          "components": [
            {
              "internalType": "address",
              "name": "stakeholderAddress",
              "type": "address"
            },
            {
              "internalType": "string",
              "name": "stakeholderPost",
              "type": "string"
            },
            {
              "internalType": "uint256",
              "name": "vestingPeriod",
              "type": "uint256"
            },
            {
              "internalType": "uint256",
              "name": "startTime",
              "type": "uint256"
            },
            {
              "internalType": "uint256",
              "name": "token",
              "type": "uint256"
            },
            {
              "internalType": "uint256",
              "name": "claimedToken",
              "type": "uint256"
            }
          ],
          "internalType": "struct Vesting.Stakeholder",
          "name": "",
          "type": "tuple"
        }
      ],
      "stateMutability": "view",
      "type": "function"
    },
    {
      "inputs": [
        {
          "internalType": "address",
          "name": "",
          "type": "address"
        }
      ],
      "name": "organisations",
      "outputs": [
        {
          "internalType": "address",
          "name": "orgAddress",
          "type": "address"
        },
        {
          "internalType": "string",
          "name": "name",
          "type": "string"
        },
        {
          "internalType": "uint256",
          "name": "token",
          "type": "uint256"
        }
      ],
      "stateMutability": "view",
      "type": "function"
    },
    {
      "inputs": [
        {
          "internalType": "address",
          "name": "",
          "type": "address"
        }
      ],
      "name": "stakeholders",
      "outputs": [
        {
          "internalType": "address",
          "name": "stakeholderAddress",
          "type": "address"
        },
        {
          "internalType": "string",
          "name": "stakeholderPost",
          "type": "string"
        },
        {
          "internalType": "uint256",
          "name": "vestingPeriod",
          "type": "uint256"
        },
        {
          "internalType": "uint256",
          "name": "startTime",
          "type": "uint256"
        },
        {
          "internalType": "uint256",
          "name": "token",
          "type": "uint256"
        },
        {
          "internalType": "uint256",
          "name": "claimedToken",
          "type": "uint256"
        }
      ],
      "stateMutability": "view",
      "type": "function"
    },
    {
      "inputs": [],
      "name": "totalSupply",
      "outputs": [
        {
          "internalType": "uint256",
          "name": "",
          "type": "uint256"
        }
      ],
      "stateMutability": "view",
      "type": "function"
    },
    {
      "inputs": [
        {
          "internalType": "address",
          "name": "_stakeholder",
          "type": "address"
        }
      ],
      "name": "whitelistAddress",
      "outputs": [],
      "stateMutability": "nonpayable",
      "type": "function"
    },
    {
      "inputs": [
        {
          "internalType": "address",
          "name": "",
          "type": "address"
        }
      ],
      "name": "whitelistedAddresses",
      "outputs": [
        {
          "internalType": "bool",
          "name": "",
          "type": "bool"
        }
      ],
      "stateMutability": "view",
      "type": "function"
    }
  ],
  "bytecode": "0x608060405234801561001057600080fd5b50611afd806100206000396000f3fe608060405234801561001057600080fd5b50600436106100a95760003560e01c80634156658511610071578063415665851461017c5780634451d89f14610198578063bcefd584146101a2578063c07cfca9146101be578063c2f6db28146101f3578063e3d670d71461020f576100a9565b80630436c8f9146100ae57806306c933d8146100cc57806318160ddd146100fc57806324d4f1831461011a578063360d8ebf1461014a575b600080fd5b6100b661023f565b6040516100c39190610e02565b60405180910390f35b6100e660048036038101906100e19190610e8f565b610286565b6040516100f39190610ed7565b60405180910390f35b6101046102a6565b6040516101119190610e02565b60405180910390f35b610134600480360381019061012f9190610e8f565b6102ac565b6040516101419190611029565b60405180910390f35b610164600480360381019061015f9190610e8f565b610415565b604051610173939291906110a4565b60405180910390f35b61019660048036038101906101919190610e8f565b6104e7565b005b6101a0610612565b005b6101bc60048036038101906101b79190611243565b610943565b005b6101d860048036038101906101d39190610e8f565b610a02565b6040516101ea969594939291906112b2565b60405180910390f35b61020d6004803603810190610208919061131a565b610ae6565b005b61022960048036038101906102249190610e8f565b610d85565b6040516102369190610e02565b60405180910390f35b6000600460003373ffffffffffffffffffffffffffffffffffffffff1673ffffffffffffffffffffffffffffffffffffffff16815260200190815260200160002054905090565b60026020528060005260406000206000915054906101000a900460ff1681565b60005481565b6102b4610d9d565b600160008373ffffffffffffffffffffffffffffffffffffffff1673ffffffffffffffffffffffffffffffffffffffff1681526020019081526020016000206040518060c00160405290816000820160009054906101000a900473ffffffffffffffffffffffffffffffffffffffff1673ffffffffffffffffffffffffffffffffffffffff1673ffffffffffffffffffffffffffffffffffffffff168152602001600182018054610364906113cc565b80601f0160208091040260200160405190810160405280929190818152602001828054610390906113cc565b80156103dd5780601f106103b2576101008083540402835291602001916103dd565b820191906000526020600020905b8154815290600101906020018083116103c057829003601f168201915b505050505081526020016002820154815260200160038201548152602001600482015481526020016005820154815250509050919050565b60036020528060005260406000206000915090508060000160009054906101000a900473ffffffffffffffffffffffffffffffffffffffff169080600101805461045e906113cc565b80601f016020809104026020016040519081016040528092919081815260200182805461048a906113cc565b80156104d75780601f106104ac576101008083540402835291602001916104d7565b820191906000526020600020905b8154815290600101906020018083116104ba57829003601f168201915b5050505050908060020154905083565b3373ffffffffffffffffffffffffffffffffffffffff16600360003373ffffffffffffffffffffffffffffffffffffffff1673ffffffffffffffffffffffffffffffffffffffff16815260200190815260200160002060000160009054906101000a900473ffffffffffffffffffffffffffffffffffffffff1673ffffffffffffffffffffffffffffffffffffffff16146105b7576040517f08c379a00000000000000000000000000000000000000000000000000000000081526004016105ae9061146f565b60405180910390fd5b6001600260008373ffffffffffffffffffffffffffffffffffffffff1673ffffffffffffffffffffffffffffffffffffffff16815260200190815260200160002060006101000a81548160ff02191690831515021790555050565b600260003373ffffffffffffffffffffffffffffffffffffffff1673ffffffffffffffffffffffffffffffffffffffff16815260200190815260200160002060009054906101000a900460ff1661069e576040517f08c379a000000000000000000000000000000000000000000000000000000000815260040161069590611501565b60405180910390fd5b6000600160003373ffffffffffffffffffffffffffffffffffffffff1673ffffffffffffffffffffffffffffffffffffffff16815260200190815260200160002090503373ffffffffffffffffffffffffffffffffffffffff16600360003373ffffffffffffffffffffffffffffffffffffffff1673ffffffffffffffffffffffffffffffffffffffff16815260200190815260200160002060000160009054906101000a900473ffffffffffffffffffffffffffffffffffffffff1673ffffffffffffffffffffffffffffffffffffffff1614806107cc57503373ffffffffffffffffffffffffffffffffffffffff168160000160009054906101000a900473ffffffffffffffffffffffffffffffffffffffff1673ffffffffffffffffffffffffffffffffffffffff16145b61080b576040517f08c379a000000000000000000000000000000000000000000000000000000000815260040161080290611593565b60405180910390fd5b8060020154816003015461081f91906115e2565b421015610861576040517f08c379a000000000000000000000000000000000000000000000000000000000815260040161085890611662565b60405180910390fd5b6000816005015482600401546108779190611682565b9050600081116108bc576040517f08c379a00000000000000000000000000000000000000000000000000000000081526004016108b390611702565b60405180910390fd5b808260050160008282546108d091906115e2565b9250508190555080600460008460000160009054906101000a900473ffffffffffffffffffffffffffffffffffffffff1673ffffffffffffffffffffffffffffffffffffffff1673ffffffffffffffffffffffffffffffffffffffff168152602001908152602001600020819055505050565b6000600360008473ffffffffffffffffffffffffffffffffffffffff1673ffffffffffffffffffffffffffffffffffffffff1681526020019081526020016000209050828160000160006101000a81548173ffffffffffffffffffffffffffffffffffffffff021916908373ffffffffffffffffffffffffffffffffffffffff160217905550838160010190816109da91906118ce565b50818160020181905550816000808282546109f591906115e2565b9250508190555050505050565b60016020528060005260406000206000915090508060000160009054906101000a900473ffffffffffffffffffffffffffffffffffffffff1690806001018054610a4b906113cc565b80601f0160208091040260200160405190810160405280929190818152602001828054610a77906113cc565b8015610ac45780601f10610a9957610100808354040283529160200191610ac4565b820191906000526020600020905b815481529060010190602001808311610aa757829003601f168201915b5050505050908060020154908060030154908060040154908060050154905086565b3373ffffffffffffffffffffffffffffffffffffffff16600360003373ffffffffffffffffffffffffffffffffffffffff1673ffffffffffffffffffffffffffffffffffffffff16815260200190815260200160002060000160009054906101000a900473ffffffffffffffffffffffffffffffffffffffff1673ffffffffffffffffffffffffffffffffffffffff1614610bb6576040517f08c379a0000000000000000000000000000000000000000000000000000000008152600401610bad906119ec565b60405180910390fd5b80600360003373ffffffffffffffffffffffffffffffffffffffff1673ffffffffffffffffffffffffffffffffffffffff168152602001908152602001600020600201541015610c3b576040517f08c379a0000000000000000000000000000000000000000000000000000000008152600401610c3290611a7e565b60405180910390fd5b6040518060c001604052808573ffffffffffffffffffffffffffffffffffffffff1681526020018481526020018381526020014281526020018281526020016000815250600160008673ffffffffffffffffffffffffffffffffffffffff1673ffffffffffffffffffffffffffffffffffffffff16815260200190815260200160002060008201518160000160006101000a81548173ffffffffffffffffffffffffffffffffffffffff021916908373ffffffffffffffffffffffffffffffffffffffff1602179055506020820151816001019081610d1a91906118ce565b5060408201518160020155606082015181600301556080820151816004015560a082015181600501559050507f3d26f908815e2b71cb2bbd101d13e7837f8eff2748f160c88e5f675071566c194283604051610d77929190611a9e565b60405180910390a150505050565b60046020528060005260406000206000915090505481565b6040518060c00160405280600073ffffffffffffffffffffffffffffffffffffffff16815260200160608152602001600081526020016000815260200160008152602001600081525090565b6000819050919050565b610dfc81610de9565b82525050565b6000602082019050610e176000830184610df3565b92915050565b6000604051905090565b600080fd5b600080fd5b600073ffffffffffffffffffffffffffffffffffffffff82169050919050565b6000610e5c82610e31565b9050919050565b610e6c81610e51565b8114610e7757600080fd5b50565b600081359050610e8981610e63565b92915050565b600060208284031215610ea557610ea4610e27565b5b6000610eb384828501610e7a565b91505092915050565b60008115159050919050565b610ed181610ebc565b82525050565b6000602082019050610eec6000830184610ec8565b92915050565b610efb81610e51565b82525050565b600081519050919050565b600082825260208201905092915050565b60005b83811015610f3b578082015181840152602081019050610f20565b60008484015250505050565b6000601f19601f8301169050919050565b6000610f6382610f01565b610f6d8185610f0c565b9350610f7d818560208601610f1d565b610f8681610f47565b840191505092915050565b610f9a81610de9565b82525050565b600060c083016000830151610fb86000860182610ef2565b5060208301518482036020860152610fd08282610f58565b9150506040830151610fe56040860182610f91565b506060830151610ff86060860182610f91565b50608083015161100b6080860182610f91565b5060a083015161101e60a0860182610f91565b508091505092915050565b600060208201905081810360008301526110438184610fa0565b905092915050565b61105481610e51565b82525050565b600082825260208201905092915050565b600061107682610f01565b611080818561105a565b9350611090818560208601610f1d565b61109981610f47565b840191505092915050565b60006060820190506110b9600083018661104b565b81810360208301526110cb818561106b565b90506110da6040830184610df3565b949350505050565b600080fd5b600080fd5b7f4e487b7100000000000000000000000000000000000000000000000000000000600052604160045260246000fd5b61112482610f47565b810181811067ffffffffffffffff82111715611143576111426110ec565b5b80604052505050565b6000611156610e1d565b9050611162828261111b565b919050565b600067ffffffffffffffff821115611182576111816110ec565b5b61118b82610f47565b9050602081019050919050565b82818337600083830152505050565b60006111ba6111b584611167565b61114c565b9050828152602081018484840111156111d6576111d56110e7565b5b6111e1848285611198565b509392505050565b600082601f8301126111fe576111fd6110e2565b5b813561120e8482602086016111a7565b91505092915050565b61122081610de9565b811461122b57600080fd5b50565b60008135905061123d81611217565b92915050565b60008060006060848603121561125c5761125b610e27565b5b600084013567ffffffffffffffff81111561127a57611279610e2c565b5b611286868287016111e9565b935050602061129786828701610e7a565b92505060406112a88682870161122e565b9150509250925092565b600060c0820190506112c7600083018961104b565b81810360208301526112d9818861106b565b90506112e86040830187610df3565b6112f56060830186610df3565b6113026080830185610df3565b61130f60a0830184610df3565b979650505050505050565b6000806000806080858703121561133457611333610e27565b5b600061134287828801610e7a565b945050602085013567ffffffffffffffff81111561136357611362610e2c565b5b61136f878288016111e9565b93505060406113808782880161122e565b92505060606113918782880161122e565b91505092959194509250565b7f4e487b7100000000000000000000000000000000000000000000000000000000600052602260045260246000fd5b600060028204905060018216806113e457607f821691505b6020821081036113f7576113f661139d565b5b50919050565b7f4f6e6c79206f7267616e697a6174696f6e2061646d696e2063616e207065726660008201527f6f726d207468697320616374696f6e0000000000000000000000000000000000602082015250565b6000611459602f8361105a565b9150611464826113fd565b604082019050919050565b600060208201905081810360008301526114888161144c565b9050919050565b7f4f6e6c792077686974656c697374656420616464726573732063616e2077697460008201527f6864726177000000000000000000000000000000000000000000000000000000602082015250565b60006114eb60258361105a565b91506114f68261148f565b604082019050919050565b6000602082019050818103600083015261151a816114de565b9050919050565b7f596f7520646f206e6f742062656c6f6e6720746f2074686973206f7267616e6960008201527f736174696f6e0000000000000000000000000000000000000000000000000000602082015250565b600061157d60268361105a565b915061158882611521565b604082019050919050565b600060208201905081810360008301526115ac81611570565b9050919050565b7f4e487b7100000000000000000000000000000000000000000000000000000000600052601160045260246000fd5b60006115ed82610de9565b91506115f883610de9565b92508282019050808211156116105761160f6115b3565b5b92915050565b7f56657374696e6720706572696f64206e6f7420796574206f7665720000000000600082015250565b600061164c601b8361105a565b915061165782611616565b602082019050919050565b6000602082019050818103600083015261167b8161163f565b9050919050565b600061168d82610de9565b915061169883610de9565b92508282039050818111156116b0576116af6115b3565b5b92915050565b7f4e6f20746f6b656e7320617661696c61626c6520746f20636c61696d00000000600082015250565b60006116ec601c8361105a565b91506116f7826116b6565b602082019050919050565b6000602082019050818103600083015261171b816116df565b9050919050565b60008190508160005260206000209050919050565b60006020601f8301049050919050565b600082821b905092915050565b6000600883026117847fffffffffffffffffffffffffffffffffffffffffffffffffffffffffffffffff82611747565b61178e8683611747565b95508019841693508086168417925050509392505050565b6000819050919050565b60006117cb6117c66117c184610de9565b6117a6565b610de9565b9050919050565b6000819050919050565b6117e5836117b0565b6117f96117f1826117d2565b848454611754565b825550505050565b600090565b61180e611801565b6118198184846117dc565b505050565b5b8181101561183d57611832600082611806565b60018101905061181f565b5050565b601f8211156118825761185381611722565b61185c84611737565b8101602085101561186b578190505b61187f61187785611737565b83018261181e565b50505b505050565b600082821c905092915050565b60006118a560001984600802611887565b1980831691505092915050565b60006118be8383611894565b9150826002028217905092915050565b6118d782610f01565b67ffffffffffffffff8111156118f0576118ef6110ec565b5b6118fa82546113cc565b611905828285611841565b600060209050601f8311600181146119385760008415611926578287015190505b61193085826118b2565b865550611998565b601f19841661194686611722565b60005b8281101561196e57848901518255600182019150602085019450602081019050611949565b8683101561198b5784890151611987601f891682611894565b8355505b6001600288020188555050505b505050505050565b7f556e617574686f72697a65640000000000000000000000000000000000000000600082015250565b60006119d6600c8361105a565b91506119e1826119a0565b602082019050919050565b60006020820190508181036000830152611a05816119c9565b9050919050565b7f546f6b656e2063616e6e6f742062652067726561746572207468616e2074686560008201527f20746f74616c20746f6b656e0000000000000000000000000000000000000000602082015250565b6000611a68602c8361105a565b9150611a7382611a0c565b604082019050919050565b60006020820190508181036000830152611a9781611a5b565b9050919050565b6000604082019050611ab36000830185610df3565b611ac06020830184610df3565b939250505056fea2646970667358221220c07d73a4b99b4a2d7c54976781c91923f6567658fc5ba9d4413b7d888285a24f64736f6c63430008110033",
  "linkReferences": {},
  "deployedLinkReferences": {}
}